{
    "contractName": "SecondPresale",
    "abi": [
        {
            "inputs": [
                {
                    "internalType": "address",
                    "name": "_teamWallet",
                    "type": "address"
                }
            ],
            "stateMutability": "nonpayable",
            "type": "constructor"
        },
        {
            "inputs": [],
            "name": "BalanceOut",
            "outputs": [],
            "stateMutability": "nonpayable",
            "type": "function"
        },
        {
            "inputs": [
                {
                    "internalType": "address",
                    "name": "_investor",
                    "type": "address"
                }
            ],
            "name": "addToWhitelist",
            "outputs": [],
            "stateMutability": "nonpayable",
            "type": "function"
        },
        {
            "inputs": [],
            "name": "burnTokens",
            "outputs": [],
            "stateMutability": "nonpayable",
            "type": "function"
        },
        {
            "inputs": [
                {
                    "internalType": "address",
                    "name": "",
                    "type": "address"
                }
            ],
            "name": "claimReady",
            "outputs": [
                {
                    "internalType": "uint256",
                    "name": "",
                    "type": "uint256"
                }
            ],
            "stateMutability": "view",
            "type": "function"
        },
        {
            "inputs": [],
            "name": "claimTokens",
            "outputs": [],
            "stateMutability": "nonpayable",
            "type": "function"
        },
        {
            "inputs": [],
            "name": "cooldownTime",
            "outputs": [
                {
                    "internalType": "uint256",
                    "name": "",
                    "type": "uint256"
                }
            ],
            "stateMutability": "view",
            "type": "function"
        },
        {
            "inputs": [],
            "name": "deadWallet",
            "outputs": [
                {
                    "internalType": "address",
                    "name": "",
                    "type": "address"
                }
            ],
            "stateMutability": "view",
            "type": "function"
        },
        {
            "inputs": [],
            "name": "ending",
            "outputs": [
                {
                    "internalType": "uint256",
                    "name": "",
                    "type": "uint256"
                }
            ],
            "stateMutability": "view",
            "type": "function"
        },
        {
            "inputs": [],
            "name": "invest",
            "outputs": [],
            "stateMutability": "payable",
            "type": "function"
        },
        {
            "inputs": [
                {
                    "internalType": "address",
                    "name": "",
                    "type": "address"
                }
            ],
            "name": "invested",
            "outputs": [
                {
                    "internalType": "uint256",
                    "name": "",
                    "type": "uint256"
                }
            ],
            "stateMutability": "view",
            "type": "function"
        },
        {
            "inputs": [
                {
                    "internalType": "address",
                    "name": "",
                    "type": "address"
                }
            ],
            "name": "investorBalance",
            "outputs": [
                {
                    "internalType": "uint256",
                    "name": "",
                    "type": "uint256"
                }
            ],
            "stateMutability": "view",
            "type": "function"
        },
        {
            "inputs": [],
            "name": "owner",
            "outputs": [
                {
                    "internalType": "address",
                    "name": "",
                    "type": "address"
                }
            ],
            "stateMutability": "view",
            "type": "function"
        },
        {
            "inputs": [],
            "name": "presaleStarted",
            "outputs": [
                {
                    "internalType": "bool",
                    "name": "",
                    "type": "bool"
                }
            ],
            "stateMutability": "view",
            "type": "function"
        },
        {
            "inputs": [
                {
                    "internalType": "contract IERC20",
                    "name": "_token",
                    "type": "address"
                }
            ],
            "name": "setToken",
            "outputs": [],
            "stateMutability": "nonpayable",
            "type": "function"
        },
        {
            "inputs": [
                {
                    "internalType": "uint256",
                    "name": "_presaleTime",
                    "type": "uint256"
                }
            ],
            "name": "startPresale",
            "outputs": [],
            "stateMutability": "nonpayable",
            "type": "function"
        },
        {
            "inputs": [],
            "name": "token",
            "outputs": [
                {
                    "internalType": "contract IERC20",
                    "name": "",
                    "type": "address"
                }
            ],
            "stateMutability": "view",
            "type": "function"
        },
        {
            "inputs": [],
            "name": "tokensPerBNB",
            "outputs": [
                {
                    "internalType": "uint256",
                    "name": "",
                    "type": "uint256"
                }
            ],
            "stateMutability": "view",
            "type": "function"
        },
        {
            "inputs": [],
            "name": "tokensSold",
            "outputs": [
                {
                    "internalType": "uint256",
                    "name": "",
                    "type": "uint256"
                }
            ],
            "stateMutability": "view",
            "type": "function"
        },
        {
            "inputs": [
                {
                    "internalType": "address",
                    "name": "",
                    "type": "address"
                }
            ],
            "name": "whitelist",
            "outputs": [
                {
                    "internalType": "bool",
                    "name": "",
                    "type": "bool"
                }
            ],
            "stateMutability": "view",
            "type": "function"
        },
        {
            "inputs": [
                {
                    "internalType": "address",
                    "name": "",
                    "type": "address"
                }
            ],
            "name": "withdrawableBalance",
            "outputs": [
                {
                    "internalType": "uint256",
                    "name": "",
                    "type": "uint256"
                }
            ],
            "stateMutability": "view",
            "type": "function"
        }
    ],
    "bytecode": "60806040526002805460ff60a01b19169055611388600355600580546001600160a81b0319169055600060065534801561003857600080fd5b5060405161120338038061120383398101604081905261005791610081565b6001600081905580546001600160a01b0319166001600160a01b03929092169190911790556100b1565b60006020828403121561009357600080fd5b81516001600160a01b03811681146100aa57600080fd5b9392505050565b611143806100c06000396000f3fe60806040526004361061011f5760003560e01c80638da5cb5b116100a0578063e43252d711610064578063e43252d714610339578063e8b5e51f14610359578063ea4dbf2214610361578063ed4f042f1461038e578063fc0c546a146103a357600080fd5b80638da5cb5b1461029d57806394033c81146102bd5780639b19251a146102d3578063a132aad114610303578063b319c6b71461032357600080fd5b806348c54b9d116100e757806348c54b9d146101f2578063518ab2a81461020757806366b3f6bf1461021d5780636f265b241461024a57806385141a771461026057600080fd5b806302b629381461012457806304549d6f1461016457806308003f781461018e578063144fa6d7146101a557806333941681146101c5575b600080fd5b34801561013057600080fd5b5061015161013f366004610fab565b600b6020526000908152604090205481565b6040519081526020015b60405180910390f35b34801561017057600080fd5b5060055461017e9060ff1681565b604051901515815260200161015b565b34801561019a57600080fd5b506101a36103c3565b005b3480156101b157600080fd5b506101a36101c0366004610fab565b610569565b3480156101d157600080fd5b506101516101e0366004610fab565b600a6020526000908152604090205481565b3480156101fe57600080fd5b506101a3610614565b34801561021357600080fd5b5061015160075481565b34801561022957600080fd5b50610151610238366004610fab565b60096020526000908152604090205481565b34801561025657600080fd5b5061015160035481565b34801561026c57600080fd5b506005546102859061010090046001600160a01b031681565b6040516001600160a01b03909116815260200161015b565b3480156102a957600080fd5b50600154610285906001600160a01b031681565b3480156102c957600080fd5b5061015160045481565b3480156102df57600080fd5b5061017e6102ee366004610fab565b60086020526000908152604090205460ff1681565b34801561030f57600080fd5b506101a361031e366004610ff1565b610a59565b34801561032f57600080fd5b5061015160065481565b34801561034557600080fd5b506101a3610354366004610fab565b610af3565b6101a3610b8a565b34801561036d57600080fd5b5061015161037c366004610fab565b600c6020526000908152604090205481565b34801561039a57600080fd5b506101a3610e6c565b3480156103af57600080fd5b50600254610285906001600160a01b031681565b6001546001600160a01b031633146103f65760405162461bcd60e51b81526004016103ed90611023565b60405180910390fd5b60045442116104475760405162461bcd60e51b815260206004820152601b60248201527f50726573616c65206d75737420686176652066696e69736865642e000000000060448201526064016103ed565b6002546040516370a0823160e01b81523060048201526000916001600160a01b0316906370a082319060240160206040518083038186803b15801561048b57600080fd5b505afa15801561049f573d6000803e3d6000fd5b505050506040513d601f19601f820116820180604052508101906104c3919061100a565b90506000600754826104d5919061109e565b60025460055460405163a9059cbb60e01b81526001600160a01b036101009092048216600482015260248101849052929350169063a9059cbb90604401602060405180830381600087803b15801561052c57600080fd5b505af1158015610540573d6000803e3d6000fd5b505050506040513d601f19601f820116820180604052508101906105649190610fcf565b505050565b6001546001600160a01b031633146105935760405162461bcd60e51b81526004016103ed90611023565b600254600160a01b900460ff16156105ed5760405162461bcd60e51b815260206004820152601a60248201527f546f6b656e20697320616c726561647920696e7365727465642e00000000000060448201526064016103ed565b600280546001600160a81b0319166001600160a01b0390921691909117600160a01b179055565b600260005414156106675760405162461bcd60e51b815260206004820152601f60248201527f5265656e7472616e637947756172643a207265656e7472616e742063616c6c0060448201526064016103ed565b600260009081553381526008602052604090205460ff166106ca5760405162461bcd60e51b815260206004820152601d60248201527f596f75206d757374206265206f6e207468652077686974656c6973742e00000060448201526064016103ed565b600454421161071b5760405162461bcd60e51b815260206004820152601b60248201527f50726573616c65206d75737420686176652066696e69736865642e000000000060448201526064016103ed565b336000908152600c60205260409020544210156107715760405162461bcd60e51b81526020600482015260146024820152732cb7ba9031b0b713ba1031b630b4b6903737bb9760611b60448201526064016103ed565b6002546040516370a0823160e01b81523060048201526000916001600160a01b0316906370a082319060240160206040518083038186803b1580156107b557600080fd5b505afa1580156107c9573d6000803e3d6000fd5b505050506040513d601f19601f820116820180604052508101906107ed919061100a565b90506000811161083f5760405162461bcd60e51b815260206004820152601e60248201527f496e73756666696369656e7420636f6e74726163742062616c616e63652e000060448201526064016103ed565b336000908152600a602052604090205461089b5760405162461bcd60e51b815260206004820152601e60248201527f496e73756666696369656e7420696e766573746f722062616c616e63652e000060448201526064016103ed565b336000908152600a60205260408120546108ba906103e8612710610ed4565b336000908152600b6020526040902054909150811061098b57600254336000818152600b60205260409081902054905163a9059cbb60e01b8152600481019290925260248201526001600160a01b039091169063a9059cbb90604401602060405180830381600087803b15801561093057600080fd5b505af1158015610944573d6000803e3d6000fd5b505050506040513d601f19601f820116820180604052508101906109689190610fcf565b50336000908152600a60209081526040808320839055600b909152812055610a50565b6006546109989042611053565b336000908152600c6020908152604080832093909355600b905290812080548392906109c590849061109e565b909155505060025460405163a9059cbb60e01b8152336004820152602481018390526001600160a01b039091169063a9059cbb90604401602060405180830381600087803b158015610a1657600080fd5b505af1158015610a2a573d6000803e3d6000fd5b505050506040513d601f19601f82011682018060405250810190610a4e9190610fcf565b505b50506001600055565b6001546001600160a01b03163314610a835760405162461bcd60e51b81526004016103ed90611023565b60055460ff1615610ad65760405162461bcd60e51b815260206004820152601860248201527f50726573616c6520616c726561647920737461727465642e000000000000000060448201526064016103ed565b610ae08142611053565b600455506005805460ff19166001179055565b6001546001600160a01b03163314610b1d5760405162461bcd60e51b81526004016103ed90611023565b6001600160a01b038116610b665760405162461bcd60e51b815260206004820152601060248201526f24b73b30b634b21030b2323932b9b99760811b60448201526064016103ed565b6001600160a01b03166000908152600860205260409020805460ff19166001179055565b60026000541415610bdd5760405162461bcd60e51b815260206004820152601f60248201527f5265656e7472616e637947756172643a207265656e7472616e742063616c6c0060448201526064016103ed565b600260009081553381526008602052604090205460ff16610c405760405162461bcd60e51b815260206004820152601d60248201527f596f75206d757374206265206f6e207468652077686974656c6973742e00000060448201526064016103ed565b60055460ff16610c925760405162461bcd60e51b815260206004820152601a60248201527f50726573616c65206d757374206861766520737461727465642e00000000000060448201526064016103ed565b600454421115610cd85760405162461bcd60e51b8152602060048201526011602482015270283932b9b0b632903334b734b9b432b21760791b60448201526064016103ed565b3360009081526009602052604081208054349290610cf7908490611053565b90915550503360009081526009602052604090205467016345785d8a00001115610d795760405162461bcd60e51b815260206004820152602d60248201527f596f757220696e766573746d656e742073686f756c64206265206d6f7265207460448201526c3430b71018171898102127211760991b60648201526084016103ed565b33600090815260096020526040902054678ac7230489e800001015610dee5760405162461bcd60e51b815260206004820152602560248201527f596f757220696e766573746d656e742063616e6e6f7420657863656564203130604482015264102127211760d91b60648201526084016103ed565b600060035434610dfe919061107f565b336000908152600a6020526040812080549293508392909190610e22908490611053565b9091555050336000908152600b602052604081208054839290610e46908490611053565b925050819055508060076000828254610e5f9190611053565b9091555050600160005550565b6001546001600160a01b03163314610e965760405162461bcd60e51b81526004016103ed90611023565b60015460405147916001600160a01b03169082156108fc029083906000818181858888f19350505050158015610ed0573d6000803e3d6000fd5b5050565b600080610eea6001600160801b0384168661106b565b90506000610f016001600160801b038516876110b5565b90506000610f186001600160801b0386168761106b565b90506000610f2f6001600160801b038716886110b5565b90506001600160801b038616610f45828561107f565b610f4f919061106b565b610f59838561107f565b610f63838761107f565b6001600160801b038916610f77868961107f565b610f81919061107f565b610f8b9190611053565b610f959190611053565b610f9f9190611053565b98975050505050505050565b600060208284031215610fbd57600080fd5b8135610fc8816110f5565b9392505050565b600060208284031215610fe157600080fd5b81518015158114610fc857600080fd5b60006020828403121561100357600080fd5b5035919050565b60006020828403121561101c57600080fd5b5051919050565b6020808252601690820152752cb7ba9036bab9ba103132903a34329037bbb732b91760511b604082015260600190565b60008219821115611066576110666110c9565b500190565b60008261107a5761107a6110df565b500490565b6000816000190483118215151615611099576110996110c9565b500290565b6000828210156110b0576110b06110c9565b500390565b6000826110c4576110c46110df565b500690565b634e487b7160e01b600052601160045260246000fd5b634e487b7160e01b600052601260045260246000fd5b6001600160a01b038116811461110a57600080fd5b5056fea26469706673582212209104c7262092183cba5e8322b030ce79ea857df15b7b49b2502571a6945b122e64736f6c63430008070033",
    "sourcePath": "/home/andino/Documents/GitHub/PUBLIC/ERC20_M4Spore/SecondPresale.sol",
    "compiler": {
        "name": "solc",
        "version": "0.8.7+commit.e28d00a7"
    },
    "functionHashes": {
        "BalanceOut()": "ed4f042f",
        "addToWhitelist(address)": "e43252d7",
        "burnTokens()": "08003f78",
        "claimReady(address)": "ea4dbf22",
        "claimTokens()": "48c54b9d",
        "cooldownTime()": "b319c6b7",
        "deadWallet()": "85141a77",
        "ending()": "94033c81",
        "invest()": "e8b5e51f",
        "invested(address)": "66b3f6bf",
        "investorBalance(address)": "33941681",
        "owner()": "8da5cb5b",
        "presaleStarted()": "04549d6f",
        "setToken(address)": "144fa6d7",
        "startPresale(uint256)": "a132aad1",
        "token()": "fc0c546a",
        "tokensPerBNB()": "6f265b24",
        "tokensSold()": "518ab2a8",
        "whitelist(address)": "9b19251a",
        "withdrawableBalance(address)": "02b62938"
    },
    "gasEstimates": {
        "creation": {
            "codeDepositCost": "883800",
            "executionCost": "infinite",
            "totalCost": "infinite"
        },
        "external": {
            "BalanceOut()": "infinite",
            "addToWhitelist(address)": "26801",
            "burnTokens()": "infinite",
            "claimReady(address)": "2568",
            "claimTokens()": "infinite",
            "cooldownTime()": "2395",
            "deadWallet()": "2459",
            "ending()": "2329",
            "invest()": "infinite",
            "invested(address)": "2569",
            "investorBalance(address)": "2614",
            "owner()": "2360",
            "presaleStarted()": "2356",
            "setToken(address)": "28947",
            "startPresale(uint256)": "50974",
            "token()": "2447",
            "tokensPerBNB()": "2373",
            "tokensSold()": "2329",
            "whitelist(address)": "2592",
            "withdrawableBalance(address)": "2526"
        },
        "internal": {
            "mulScale(uint256,uint256,uint128)": "infinite"
        }
    }
}